{"project/contracts/PeerProofRegistry.sol":{"PeerProofRegistry":{"abi":[{"anonymous":false,"inputs":[{"indexed":true,"internalType":"bytes32","name":"refId","type":"bytes32"},{"indexed":true,"internalType":"address","name":"employee","type":"address"},{"indexed":true,"internalType":"address","name":"reviewer","type":"address"},{"indexed":false,"internalType":"bytes32","name":"dataHash","type":"bytes32"}],"name":"ReferenceCreated","type":"event"},{"anonymous":false,"inputs":[{"indexed":true,"internalType":"bytes32","name":"refId","type":"bytes32"},{"indexed":false,"internalType":"enum PeerProofRegistry.Status","name":"newStatus","type":"uint8"}],"name":"ReferenceStatusChanged","type":"event"},{"inputs":[{"internalType":"bytes32","name":"refId","type":"bytes32"},{"internalType":"address","name":"employee","type":"address"},{"internalType":"address","name":"reviewer","type":"address"},{"internalType":"bytes32","name":"dataHash","type":"bytes32"}],"name":"createReference","outputs":[],"stateMutability":"nonpayable","type":"function"},{"inputs":[{"internalType":"bytes32","name":"","type":"bytes32"}],"name":"references","outputs":[{"internalType":"address","name":"employee","type":"address"},{"internalType":"address","name":"reviewer","type":"address"},{"internalType":"bytes32","name":"dataHash","type":"bytes32"},{"internalType":"uint64","name":"createdAt","type":"uint64"},{"internalType":"enum PeerProofRegistry.Status","name":"status","type":"uint8"}],"stateMutability":"view","type":"function"},{"inputs":[{"internalType":"bytes32","name":"refId","type":"bytes32"}],"name":"revoke","outputs":[],"stateMutability":"nonpayable","type":"function"},{"inputs":[{"internalType":"bytes32","name":"refId","type":"bytes32"}],"name":"suppress","outputs":[],"stateMutability":"nonpayable","type":"function"}],"evm":{"bytecode":{"linkReferences":{},"object":"608060405234801561000f575f80fd5b50610dcf8061001d5f395ff3fe608060405234801561000f575f80fd5b506004361061004a575f3560e01c80634bd8588b1461004e5780638bb2de6914610082578063b75c7dc61461009e578063fa8b018b146100ba575b5f80fd5b61006860048036038101906100639190610892565b6100d6565b6040516100799594939291906109a0565b60405180910390f35b61009c60048036038101906100979190610892565b610165565b005b6100b860048036038101906100b39190610892565b61035d565b005b6100d460048036038101906100cf9190610a1b565b610556565b005b5f602052805f5260405f205f91509050805f015f9054906101000a900473ffffffffffffffffffffffffffffffffffffffff1690806001015f9054906101000a900473ffffffffffffffffffffffffffffffffffffffff1690806002015490806003015f9054906101000a900467ffffffffffffffff16908060030160089054906101000a900460ff16905085565b5f805f8381526020019081526020015f2090505f816003015f9054906101000a900467ffffffffffffffff1667ffffffffffffffff16036101db576040517f08c379a00000000000000000000000000000000000000000000000000000000081526004016101d290610ad9565b60405180910390fd5b805f015f9054906101000a900473ffffffffffffffffffffffffffffffffffffffff1673ffffffffffffffffffffffffffffffffffffffff163373ffffffffffffffffffffffffffffffffffffffff161461026b576040517f08c379a000000000000000000000000000000000000000000000000000000000815260040161026290610b41565b60405180910390fd5b6001600381111561027f5761027e61092d565b5b8160030160089054906101000a900460ff1660038111156102a3576102a261092d565b5b146102e3576040517f08c379a00000000000000000000000000000000000000000000000000000000081526004016102da90610ba9565b60405180910390fd5b60028160030160086101000a81548160ff0219169083600381111561030b5761030a61092d565b5b0217905550817f35b362024684f4ab113e9120100afaefd277342694ab4728d656ac27a6ea08b28260030160089054906101000a900460ff166040516103519190610bc7565b60405180910390a25050565b5f805f8381526020019081526020015f2090505f816003015f9054906101000a900467ffffffffffffffff1667ffffffffffffffff16036103d3576040517f08c379a00000000000000000000000000000000000000000000000000000000081526004016103ca90610ad9565b60405180910390fd5b806001015f9054906101000a900473ffffffffffffffffffffffffffffffffffffffff1673ffffffffffffffffffffffffffffffffffffffff163373ffffffffffffffffffffffffffffffffffffffff1614610464576040517f08c379a000000000000000000000000000000000000000000000000000000000815260040161045b90610c2a565b60405180910390fd5b600160038111156104785761047761092d565b5b8160030160089054906101000a900460ff16600381111561049c5761049b61092d565b5b146104dc576040517f08c379a00000000000000000000000000000000000000000000000000000000081526004016104d390610ba9565b60405180910390fd5b60038160030160086101000a81548160ff021916908360038111156105045761050361092d565b5b0217905550817f35b362024684f4ab113e9120100afaefd277342694ab4728d656ac27a6ea08b28260030160089054906101000a900460ff1660405161054a9190610bc7565b60405180910390a25050565b5f801b840361059a576040517f08c379a000000000000000000000000000000000000000000000000000000000815260040161059190610c92565b60405180910390fd5b5f805f8681526020019081526020015f206003015f9054906101000a900467ffffffffffffffff1667ffffffffffffffff161461060c576040517f08c379a000000000000000000000000000000000000000000000000000000000815260040161060390610cfa565b60405180910390fd5b5f73ffffffffffffffffffffffffffffffffffffffff168373ffffffffffffffffffffffffffffffffffffffff160361067a576040517f08c379a000000000000000000000000000000000000000000000000000000000815260040161067190610d62565b60405180910390fd5b6040518060a001604052808473ffffffffffffffffffffffffffffffffffffffff1681526020018373ffffffffffffffffffffffffffffffffffffffff1681526020018281526020014267ffffffffffffffff168152602001600160038111156106e7576106e661092d565b5b8152505f808681526020019081526020015f205f820151815f015f6101000a81548173ffffffffffffffffffffffffffffffffffffffff021916908373ffffffffffffffffffffffffffffffffffffffff1602179055506020820151816001015f6101000a81548173ffffffffffffffffffffffffffffffffffffffff021916908373ffffffffffffffffffffffffffffffffffffffff160217905550604082015181600201556060820151816003015f6101000a81548167ffffffffffffffff021916908367ffffffffffffffff16021790555060808201518160030160086101000a81548160ff021916908360038111156107e7576107e661092d565b5b02179055509050508173ffffffffffffffffffffffffffffffffffffffff168373ffffffffffffffffffffffffffffffffffffffff16857f504d1b32224e0b8953a691a2c68f49debbeb3f1ddefbba00b1bae6a621aff8a78460405161084d9190610d80565b60405180910390a450505050565b5f80fd5b5f819050919050565b6108718161085f565b811461087b575f80fd5b50565b5f8135905061088c81610868565b92915050565b5f602082840312156108a7576108a661085b565b5b5f6108b48482850161087e565b91505092915050565b5f73ffffffffffffffffffffffffffffffffffffffff82169050919050565b5f6108e6826108bd565b9050919050565b6108f6816108dc565b82525050565b6109058161085f565b82525050565b5f67ffffffffffffffff82169050919050565b6109278161090b565b82525050565b7f4e487b71000000000000000000000000000000000000000000000000000000005f52602160045260245ffd5b6004811061096b5761096a61092d565b5b50565b5f81905061097b8261095a565b919050565b5f61098a8261096e565b9050919050565b61099a81610980565b82525050565b5f60a0820190506109b35f8301886108ed565b6109c060208301876108ed565b6109cd60408301866108fc565b6109da606083018561091e565b6109e76080830184610991565b9695505050505050565b6109fa816108dc565b8114610a04575f80fd5b50565b5f81359050610a15816109f1565b92915050565b5f805f8060808587031215610a3357610a3261085b565b5b5f610a408782880161087e565b9450506020610a5187828801610a07565b9350506040610a6287828801610a07565b9250506060610a738782880161087e565b91505092959194509250565b5f82825260208201905092915050565b7f6e6f7420666f756e6400000000000000000000000000000000000000000000005f82015250565b5f610ac3600983610a7f565b9150610ace82610a8f565b602082019050919050565b5f6020820190508181035f830152610af081610ab7565b9050919050565b7f6f6e6c7920656d706c6f796565000000000000000000000000000000000000005f82015250565b5f610b2b600d83610a7f565b9150610b3682610af7565b602082019050919050565b5f6020820190508181035f830152610b5881610b1f565b9050919050565b7f6e6f7420616374697665000000000000000000000000000000000000000000005f82015250565b5f610b93600a83610a7f565b9150610b9e82610b5f565b602082019050919050565b5f6020820190508181035f830152610bc081610b87565b9050919050565b5f602082019050610bda5f830184610991565b92915050565b7f6f6e6c79207265766965776572000000000000000000000000000000000000005f82015250565b5f610c14600d83610a7f565b9150610c1f82610be0565b602082019050919050565b5f6020820190508181035f830152610c4181610c08565b9050919050565b7f62616420726566496400000000000000000000000000000000000000000000005f82015250565b5f610c7c600983610a7f565b9150610c8782610c48565b602082019050919050565b5f6020820190508181035f830152610ca981610c70565b9050919050565b7f616c7265616479206578697374730000000000000000000000000000000000005f82015250565b5f610ce4600e83610a7f565b9150610cef82610cb0565b602082019050919050565b5f6020820190508181035f830152610d1181610cd8565b9050919050565b7f62616420656d706c6f79656500000000000000000000000000000000000000005f82015250565b5f610d4c600c83610a7f565b9150610d5782610d18565b602082019050919050565b5f6020820190508181035f830152610d7981610d40565b9050919050565b5f602082019050610d935f8301846108fc565b9291505056fea2646970667358221220c9ab3affd6b75b85e0387e6edd9344826ddffb3aa1ed1eb6df1ec4b3ce91c1f064736f6c63430008140033","opcodes":"PUSH1 0x80 PUSH1 0x40 MSTORE CALLVALUE DUP1 ISZERO PUSH2 0xF JUMPI PUSH0 DUP1 REVERT JUMPDEST POP PUSH2 0xDCF DUP1 PUSH2 0x1D PUSH0 CODECOPY PUSH0 RETURN INVALID PUSH1 0x80 PUSH1 0x40 MSTORE CALLVALUE DUP1 ISZERO PUSH2 0xF JUMPI PUSH0 DUP1 REVERT JUMPDEST POP PUSH1 0x4 CALLDATASIZE LT PUSH2 0x4A JUMPI PUSH0 CALLDATALOAD PUSH1 0xE0 SHR DUP1 PUSH4 0x4BD8588B EQ PUSH2 0x4E JUMPI DUP1 PUSH4 0x8BB2DE69 EQ PUSH2 0x82 JUMPI DUP1 PUSH4 0xB75C7DC6 EQ PUSH2 0x9E JUMPI DUP1 PUSH4 0xFA8B018B EQ PUSH2 0xBA JUMPI JUMPDEST PUSH0 DUP1 REVERT JUMPDEST PUSH2 0x68 PUSH1 0x4 DUP1 CALLDATASIZE SUB DUP2 ADD SWAP1 PUSH2 0x63 SWAP2 SWAP1 PUSH2 0x892 JUMP JUMPDEST PUSH2 0xD6 JUMP JUMPDEST PUSH1 0x40 MLOAD PUSH2 0x79 SWAP6 SWAP5 SWAP4 SWAP3 SWAP2 SWAP1 PUSH2 0x9A0 JUMP JUMPDEST PUSH1 0x40 MLOAD DUP1 SWAP2 SUB SWAP1 RETURN JUMPDEST PUSH2 0x9C PUSH1 0x4 DUP1 CALLDATASIZE SUB DUP2 ADD SWAP1 PUSH2 0x97 SWAP2 SWAP1 PUSH2 0x892 JUMP JUMPDEST PUSH2 0x165 JUMP JUMPDEST STOP JUMPDEST PUSH2 0xB8 PUSH1 0x4 DUP1 CALLDATASIZE SUB DUP2 ADD SWAP1 PUSH2 0xB3 SWAP2 SWAP1 PUSH2 0x892 JUMP JUMPDEST PUSH2 0x35D JUMP JUMPDEST STOP JUMPDEST PUSH2 0xD4 PUSH1 0x4 DUP1 CALLDATASIZE SUB DUP2 ADD SWAP1 PUSH2 0xCF SWAP2 SWAP1 PUSH2 0xA1B JUMP JUMPDEST PUSH2 0x556 JUMP JUMPDEST STOP JUMPDEST PUSH0 PUSH1 0x20 MSTORE DUP1 PUSH0 MSTORE PUSH1 0x40 PUSH0 KECCAK256 PUSH0 SWAP2 POP SWAP1 POP DUP1 PUSH0 ADD PUSH0 SWAP1 SLOAD SWAP1 PUSH2 0x100 EXP SWAP1 DIV PUSH20 0xFFFFFFFFFFFFFFFFFFFFFFFFFFFFFFFFFFFFFFFF AND SWAP1 DUP1 PUSH1 0x1 ADD PUSH0 SWAP1 SLOAD SWAP1 PUSH2 0x100 EXP SWAP1 DIV PUSH20 0xFFFFFFFFFFFFFFFFFFFFFFFFFFFFFFFFFFFFFFFF AND SWAP1 DUP1 PUSH1 0x2 ADD SLOAD SWAP1 DUP1 PUSH1 0x3 ADD PUSH0 SWAP1 SLOAD SWAP1 PUSH2 0x100 EXP SWAP1 DIV PUSH8 0xFFFFFFFFFFFFFFFF AND SWAP1 DUP1 PUSH1 0x3 ADD PUSH1 0x8 SWAP1 SLOAD SWAP1 PUSH2 0x100 EXP SWAP1 DIV PUSH1 0xFF AND SWAP1 POP DUP6 JUMP JUMPDEST PUSH0 DUP1 PUSH0 DUP4 DUP2 MSTORE PUSH1 0x20 ADD SWAP1 DUP2 MSTORE PUSH1 0x20 ADD PUSH0 KECCAK256 SWAP1 POP PUSH0 DUP2 PUSH1 0x3 ADD PUSH0 SWAP1 SLOAD SWAP1 PUSH2 0x100 EXP SWAP1 DIV PUSH8 0xFFFFFFFFFFFFFFFF AND PUSH8 0xFFFFFFFFFFFFFFFF AND SUB PUSH2 0x1DB JUMPI PUSH1 0x40 MLOAD PUSH32 0x8C379A000000000000000000000000000000000000000000000000000000000 DUP2 MSTORE PUSH1 0x4 ADD PUSH2 0x1D2 SWAP1 PUSH2 0xAD9 JUMP JUMPDEST PUSH1 0x40 MLOAD DUP1 SWAP2 SUB SWAP1 REVERT JUMPDEST DUP1 PUSH0 ADD PUSH0 SWAP1 SLOAD SWAP1 PUSH2 0x100 EXP SWAP1 DIV PUSH20 0xFFFFFFFFFFFFFFFFFFFFFFFFFFFFFFFFFFFFFFFF AND PUSH20 0xFFFFFFFFFFFFFFFFFFFFFFFFFFFFFFFFFFFFFFFF AND CALLER PUSH20 0xFFFFFFFFFFFFFFFFFFFFFFFFFFFFFFFFFFFFFFFF AND EQ PUSH2 0x26B JUMPI PUSH1 0x40 MLOAD PUSH32 0x8C379A000000000000000000000000000000000000000000000000000000000 DUP2 MSTORE PUSH1 0x4 ADD PUSH2 0x262 SWAP1 PUSH2 0xB41 JUMP JUMPDEST PUSH1 0x40 MLOAD DUP1 SWAP2 SUB SWAP1 REVERT JUMPDEST PUSH1 0x1 PUSH1 0x3 DUP2 GT ISZERO PUSH2 0x27F JUMPI PUSH2 0x27E PUSH2 0x92D JUMP JUMPDEST JUMPDEST DUP2 PUSH1 0x3 ADD PUSH1 0x8 SWAP1 SLOAD SWAP1 PUSH2 0x100 EXP SWAP1 DIV PUSH1 0xFF AND PUSH1 0x3 DUP2 GT ISZERO PUSH2 0x2A3 JUMPI PUSH2 0x2A2 PUSH2 0x92D JUMP JUMPDEST JUMPDEST EQ PUSH2 0x2E3 JUMPI PUSH1 0x40 MLOAD PUSH32 0x8C379A000000000000000000000000000000000000000000000000000000000 DUP2 MSTORE PUSH1 0x4 ADD PUSH2 0x2DA SWAP1 PUSH2 0xBA9 JUMP JUMPDEST PUSH1 0x40 MLOAD DUP1 SWAP2 SUB SWAP1 REVERT JUMPDEST PUSH1 0x2 DUP2 PUSH1 0x3 ADD PUSH1 0x8 PUSH2 0x100 EXP DUP2 SLOAD DUP2 PUSH1 0xFF MUL NOT AND SWAP1 DUP4 PUSH1 0x3 DUP2 GT ISZERO PUSH2 0x30B JUMPI PUSH2 0x30A PUSH2 0x92D JUMP JUMPDEST JUMPDEST MUL OR SWAP1 SSTORE POP DUP2 PUSH32 0x35B362024684F4AB113E9120100AFAEFD277342694AB4728D656AC27A6EA08B2 DUP3 PUSH1 0x3 ADD PUSH1 0x8 SWAP1 SLOAD SWAP1 PUSH2 0x100 EXP SWAP1 DIV PUSH1 0xFF AND PUSH1 0x40 MLOAD PUSH2 0x351 SWAP2 SWAP1 PUSH2 0xBC7 JUMP JUMPDEST PUSH1 0x40 MLOAD DUP1 SWAP2 SUB SWAP1 LOG2 POP POP JUMP JUMPDEST PUSH0 DUP1 PUSH0 DUP4 DUP2 MSTORE PUSH1 0x20 ADD SWAP1 DUP2 MSTORE PUSH1 0x20 ADD PUSH0 KECCAK256 SWAP1 POP PUSH0 DUP2 PUSH1 0x3 ADD PUSH0 SWAP1 SLOAD SWAP1 PUSH2 0x100 EXP SWAP1 DIV PUSH8 0xFFFFFFFFFFFFFFFF AND PUSH8 0xFFFFFFFFFFFFFFFF AND SUB PUSH2 0x3D3 JUMPI PUSH1 0x40 MLOAD PUSH32 0x8C379A000000000000000000000000000000000000000000000000000000000 DUP2 MSTORE PUSH1 0x4 ADD PUSH2 0x3CA SWAP1 PUSH2 0xAD9 JUMP JUMPDEST PUSH1 0x40 MLOAD DUP1 SWAP2 SUB SWAP1 REVERT JUMPDEST DUP1 PUSH1 0x1 ADD PUSH0 SWAP1 SLOAD SWAP1 PUSH2 0x100 EXP SWAP1 DIV PUSH20 0xFFFFFFFFFFFFFFFFFFFFFFFFFFFFFFFFFFFFFFFF AND PUSH20 0xFFFFFFFFFFFFFFFFFFFFFFFFFFFFFFFFFFFFFFFF AND CALLER PUSH20 0xFFFFFFFFFFFFFFFFFFFFFFFFFFFFFFFFFFFFFFFF AND EQ PUSH2 0x464 JUMPI PUSH1 0x40 MLOAD PUSH32 0x8C379A000000000000000000000000000000000000000000000000000000000 DUP2 MSTORE PUSH1 0x4 ADD PUSH2 0x45B SWAP1 PUSH2 0xC2A JUMP JUMPDEST PUSH1 0x40 MLOAD DUP1 SWAP2 SUB SWAP1 REVERT JUMPDEST PUSH1 0x1 PUSH1 0x3 DUP2 GT ISZERO PUSH2 0x478 JUMPI PUSH2 0x477 PUSH2 0x92D JUMP JUMPDEST JUMPDEST DUP2 PUSH1 0x3 ADD PUSH1 0x8 SWAP1 SLOAD SWAP1 PUSH2 0x100 EXP SWAP1 DIV PUSH1 0xFF AND PUSH1 0x3 DUP2 GT ISZERO PUSH2 0x49C JUMPI PUSH2 0x49B PUSH2 0x92D JUMP JUMPDEST JUMPDEST EQ PUSH2 0x4DC JUMPI PUSH1 0x40 MLOAD PUSH32 0x8C379A000000000000000000000000000000000000000000000000000000000 DUP2 MSTORE PUSH1 0x4 ADD PUSH2 0x4D3 SWAP1 PUSH2 0xBA9 JUMP JUMPDEST PUSH1 0x40 MLOAD DUP1 SWAP2 SUB SWAP1 REVERT JUMPDEST PUSH1 0x3 DUP2 PUSH1 0x3 ADD PUSH1 0x8 PUSH2 0x100 EXP DUP2 SLOAD DUP2 PUSH1 0xFF MUL NOT AND SWAP1 DUP4 PUSH1 0x3 DUP2 GT ISZERO PUSH2 0x504 JUMPI PUSH2 0x503 PUSH2 0x92D JUMP JUMPDEST JUMPDEST MUL OR SWAP1 SSTORE POP DUP2 PUSH32 0x35B362024684F4AB113E9120100AFAEFD277342694AB4728D656AC27A6EA08B2 DUP3 PUSH1 0x3 ADD PUSH1 0x8 SWAP1 SLOAD SWAP1 PUSH2 0x100 EXP SWAP1 DIV PUSH1 0xFF AND PUSH1 0x40 MLOAD PUSH2 0x54A SWAP2 SWAP1 PUSH2 0xBC7 JUMP JUMPDEST PUSH1 0x40 MLOAD DUP1 SWAP2 SUB SWAP1 LOG2 POP POP JUMP JUMPDEST PUSH0 DUP1 SHL DUP5 SUB PUSH2 0x59A JUMPI PUSH1 0x40 MLOAD PUSH32 0x8C379A000000000000000000000000000000000000000000000000000000000 DUP2 MSTORE PUSH1 0x4 ADD PUSH2 0x591 SWAP1 PUSH2 0xC92 JUMP JUMPDEST PUSH1 0x40 MLOAD DUP1 SWAP2 SUB SWAP1 REVERT JUMPDEST PUSH0 DUP1 PUSH0 DUP7 DUP2 MSTORE PUSH1 0x20 ADD SWAP1 DUP2 MSTORE PUSH1 0x20 ADD PUSH0 KECCAK256 PUSH1 0x3 ADD PUSH0 SWAP1 SLOAD SWAP1 PUSH2 0x100 EXP SWAP1 DIV PUSH8 0xFFFFFFFFFFFFFFFF AND PUSH8 0xFFFFFFFFFFFFFFFF AND EQ PUSH2 0x60C JUMPI PUSH1 0x40 MLOAD PUSH32 0x8C379A000000000000000000000000000000000000000000000000000000000 DUP2 MSTORE PUSH1 0x4 ADD PUSH2 0x603 SWAP1 PUSH2 0xCFA JUMP JUMPDEST PUSH1 0x40 MLOAD DUP1 SWAP2 SUB SWAP1 REVERT JUMPDEST PUSH0 PUSH20 0xFFFFFFFFFFFFFFFFFFFFFFFFFFFFFFFFFFFFFFFF AND DUP4 PUSH20 0xFFFFFFFFFFFFFFFFFFFFFFFFFFFFFFFFFFFFFFFF AND SUB PUSH2 0x67A JUMPI PUSH1 0x40 MLOAD PUSH32 0x8C379A000000000000000000000000000000000000000000000000000000000 DUP2 MSTORE PUSH1 0x4 ADD PUSH2 0x671 SWAP1 PUSH2 0xD62 JUMP JUMPDEST PUSH1 0x40 MLOAD DUP1 SWAP2 SUB SWAP1 REVERT JUMPDEST PUSH1 0x40 MLOAD DUP1 PUSH1 0xA0 ADD PUSH1 0x40 MSTORE DUP1 DUP5 PUSH20 0xFFFFFFFFFFFFFFFFFFFFFFFFFFFFFFFFFFFFFFFF AND DUP2 MSTORE PUSH1 0x20 ADD DUP4 PUSH20 0xFFFFFFFFFFFFFFFFFFFFFFFFFFFFFFFFFFFFFFFF AND DUP2 MSTORE PUSH1 0x20 ADD DUP3 DUP2 MSTORE PUSH1 0x20 ADD TIMESTAMP PUSH8 0xFFFFFFFFFFFFFFFF AND DUP2 MSTORE PUSH1 0x20 ADD PUSH1 0x1 PUSH1 0x3 DUP2 GT ISZERO PUSH2 0x6E7 JUMPI PUSH2 0x6E6 PUSH2 0x92D JUMP JUMPDEST JUMPDEST DUP2 MSTORE POP PUSH0 DUP1 DUP7 DUP2 MSTORE PUSH1 0x20 ADD SWAP1 DUP2 MSTORE PUSH1 0x20 ADD PUSH0 KECCAK256 PUSH0 DUP3 ADD MLOAD DUP2 PUSH0 ADD PUSH0 PUSH2 0x100 EXP DUP2 SLOAD DUP2 PUSH20 0xFFFFFFFFFFFFFFFFFFFFFFFFFFFFFFFFFFFFFFFF MUL NOT AND SWAP1 DUP4 PUSH20 0xFFFFFFFFFFFFFFFFFFFFFFFFFFFFFFFFFFFFFFFF AND MUL OR SWAP1 SSTORE POP PUSH1 0x20 DUP3 ADD MLOAD DUP2 PUSH1 0x1 ADD PUSH0 PUSH2 0x100 EXP DUP2 SLOAD DUP2 PUSH20 0xFFFFFFFFFFFFFFFFFFFFFFFFFFFFFFFFFFFFFFFF MUL NOT AND SWAP1 DUP4 PUSH20 0xFFFFFFFFFFFFFFFFFFFFFFFFFFFFFFFFFFFFFFFF AND MUL OR SWAP1 SSTORE POP PUSH1 0x40 DUP3 ADD MLOAD DUP2 PUSH1 0x2 ADD SSTORE PUSH1 0x60 DUP3 ADD MLOAD DUP2 PUSH1 0x3 ADD PUSH0 PUSH2 0x100 EXP DUP2 SLOAD DUP2 PUSH8 0xFFFFFFFFFFFFFFFF MUL NOT AND SWAP1 DUP4 PUSH8 0xFFFFFFFFFFFFFFFF AND MUL OR SWAP1 SSTORE POP PUSH1 0x80 DUP3 ADD MLOAD DUP2 PUSH1 0x3 ADD PUSH1 0x8 PUSH2 0x100 EXP DUP2 SLOAD DUP2 PUSH1 0xFF MUL NOT AND SWAP1 DUP4 PUSH1 0x3 DUP2 GT ISZERO PUSH2 0x7E7 JUMPI PUSH2 0x7E6 PUSH2 0x92D JUMP JUMPDEST JUMPDEST MUL OR SWAP1 SSTORE POP SWAP1 POP POP DUP2 PUSH20 0xFFFFFFFFFFFFFFFFFFFFFFFFFFFFFFFFFFFFFFFF AND DUP4 PUSH20 0xFFFFFFFFFFFFFFFFFFFFFFFFFFFFFFFFFFFFFFFF AND DUP6 PUSH32 0x504D1B32224E0B8953A691A2C68F49DEBBEB3F1DDEFBBA00B1BAE6A621AFF8A7 DUP5 PUSH1 0x40 MLOAD PUSH2 0x84D SWAP2 SWAP1 PUSH2 0xD80 JUMP JUMPDEST PUSH1 0x40 MLOAD DUP1 SWAP2 SUB SWAP1 LOG4 POP POP POP POP JUMP JUMPDEST PUSH0 DUP1 REVERT JUMPDEST PUSH0 DUP2 SWAP1 POP SWAP2 SWAP1 POP JUMP JUMPDEST PUSH2 0x871 DUP2 PUSH2 0x85F JUMP JUMPDEST DUP2 EQ PUSH2 0x87B JUMPI PUSH0 DUP1 REVERT JUMPDEST POP JUMP JUMPDEST PUSH0 DUP2 CALLDATALOAD SWAP1 POP PUSH2 0x88C DUP2 PUSH2 0x868 JUMP JUMPDEST SWAP3 SWAP2 POP POP JUMP JUMPDEST PUSH0 PUSH1 0x20 DUP3 DUP5 SUB SLT ISZERO PUSH2 0x8A7 JUMPI PUSH2 0x8A6 PUSH2 0x85B JUMP JUMPDEST JUMPDEST PUSH0 PUSH2 0x8B4 DUP5 DUP3 DUP6 ADD PUSH2 0x87E JUMP JUMPDEST SWAP2 POP POP SWAP3 SWAP2 POP POP JUMP JUMPDEST PUSH0 PUSH20 0xFFFFFFFFFFFFFFFFFFFFFFFFFFFFFFFFFFFFFFFF DUP3 AND SWAP1 POP SWAP2 SWAP1 POP JUMP JUMPDEST PUSH0 PUSH2 0x8E6 DUP3 PUSH2 0x8BD JUMP JUMPDEST SWAP1 POP SWAP2 SWAP1 POP JUMP JUMPDEST PUSH2 0x8F6 DUP2 PUSH2 0x8DC JUMP JUMPDEST DUP3 MSTORE POP POP JUMP JUMPDEST PUSH2 0x905 DUP2 PUSH2 0x85F JUMP JUMPDEST DUP3 MSTORE POP POP JUMP JUMPDEST PUSH0 PUSH8 0xFFFFFFFFFFFFFFFF DUP3 AND SWAP1 POP SWAP2 SWAP1 POP JUMP JUMPDEST PUSH2 0x927 DUP2 PUSH2 0x90B JUMP JUMPDEST DUP3 MSTORE POP POP JUMP JUMPDEST PUSH32 0x4E487B7100000000000000000000000000000000000000000000000000000000 PUSH0 MSTORE PUSH1 0x21 PUSH1 0x4 MSTORE PUSH1 0x24 PUSH0 REVERT JUMPDEST PUSH1 0x4 DUP2 LT PUSH2 0x96B JUMPI PUSH2 0x96A PUSH2 0x92D JUMP JUMPDEST JUMPDEST POP JUMP JUMPDEST PUSH0 DUP2 SWAP1 POP PUSH2 0x97B DUP3 PUSH2 0x95A JUMP JUMPDEST SWAP2 SWAP1 POP JUMP JUMPDEST PUSH0 PUSH2 0x98A DUP3 PUSH2 0x96E JUMP JUMPDEST SWAP1 POP SWAP2 SWAP1 POP JUMP JUMPDEST PUSH2 0x99A DUP2 PUSH2 0x980 JUMP JUMPDEST DUP3 MSTORE POP POP JUMP JUMPDEST PUSH0 PUSH1 0xA0 DUP3 ADD SWAP1 POP PUSH2 0x9B3 PUSH0 DUP4 ADD DUP9 PUSH2 0x8ED JUMP JUMPDEST PUSH2 0x9C0 PUSH1 0x20 DUP4 ADD DUP8 PUSH2 0x8ED JUMP JUMPDEST PUSH2 0x9CD PUSH1 0x40 DUP4 ADD DUP7 PUSH2 0x8FC JUMP JUMPDEST PUSH2 0x9DA PUSH1 0x60 DUP4 ADD DUP6 PUSH2 0x91E JUMP JUMPDEST PUSH2 0x9E7 PUSH1 0x80 DUP4 ADD DUP5 PUSH2 0x991 JUMP JUMPDEST SWAP7 SWAP6 POP POP POP POP POP POP JUMP JUMPDEST PUSH2 0x9FA DUP2 PUSH2 0x8DC JUMP JUMPDEST DUP2 EQ PUSH2 0xA04 JUMPI PUSH0 DUP1 REVERT JUMPDEST POP JUMP JUMPDEST PUSH0 DUP2 CALLDATALOAD SWAP1 POP PUSH2 0xA15 DUP2 PUSH2 0x9F1 JUMP JUMPDEST SWAP3 SWAP2 POP POP JUMP JUMPDEST PUSH0 DUP1 PUSH0 DUP1 PUSH1 0x80 DUP6 DUP8 SUB SLT ISZERO PUSH2 0xA33 JUMPI PUSH2 0xA32 PUSH2 0x85B JUMP JUMPDEST JUMPDEST PUSH0 PUSH2 0xA40 DUP8 DUP3 DUP9 ADD PUSH2 0x87E JUMP JUMPDEST SWAP5 POP POP PUSH1 0x20 PUSH2 0xA51 DUP8 DUP3 DUP9 ADD PUSH2 0xA07 JUMP JUMPDEST SWAP4 POP POP PUSH1 0x40 PUSH2 0xA62 DUP8 DUP3 DUP9 ADD PUSH2 0xA07 JUMP JUMPDEST SWAP3 POP POP PUSH1 0x60 PUSH2 0xA73 DUP8 DUP3 DUP9 ADD PUSH2 0x87E JUMP JUMPDEST SWAP2 POP POP SWAP3 SWAP6 SWAP2 SWAP5 POP SWAP3 POP JUMP JUMPDEST PUSH0 DUP3 DUP3 MSTORE PUSH1 0x20 DUP3 ADD SWAP1 POP SWAP3 SWAP2 POP POP JUMP JUMPDEST PUSH32 0x6E6F7420666F756E640000000000000000000000000000000000000000000000 PUSH0 DUP3 ADD MSTORE POP JUMP JUMPDEST PUSH0 PUSH2 0xAC3 PUSH1 0x9 DUP4 PUSH2 0xA7F JUMP JUMPDEST SWAP2 POP PUSH2 0xACE DUP3 PUSH2 0xA8F JUMP JUMPDEST PUSH1 0x20 DUP3 ADD SWAP1 POP SWAP2 SWAP1 POP JUMP JUMPDEST PUSH0 PUSH1 0x20 DUP3 ADD SWAP1 POP DUP2 DUP2 SUB PUSH0 DUP4 ADD MSTORE PUSH2 0xAF0 DUP2 PUSH2 0xAB7 JUMP JUMPDEST SWAP1 POP SWAP2 SWAP1 POP JUMP JUMPDEST PUSH32 0x6F6E6C7920656D706C6F79656500000000000000000000000000000000000000 PUSH0 DUP3 ADD MSTORE POP JUMP JUMPDEST PUSH0 PUSH2 0xB2B PUSH1 0xD DUP4 PUSH2 0xA7F JUMP JUMPDEST SWAP2 POP PUSH2 0xB36 DUP3 PUSH2 0xAF7 JUMP JUMPDEST PUSH1 0x20 DUP3 ADD SWAP1 POP SWAP2 SWAP1 POP JUMP JUMPDEST PUSH0 PUSH1 0x20 DUP3 ADD SWAP1 POP DUP2 DUP2 SUB PUSH0 DUP4 ADD MSTORE PUSH2 0xB58 DUP2 PUSH2 0xB1F JUMP JUMPDEST SWAP1 POP SWAP2 SWAP1 POP JUMP JUMPDEST PUSH32 0x6E6F742061637469766500000000000000000000000000000000000000000000 PUSH0 DUP3 ADD MSTORE POP JUMP JUMPDEST PUSH0 PUSH2 0xB93 PUSH1 0xA DUP4 PUSH2 0xA7F JUMP JUMPDEST SWAP2 POP PUSH2 0xB9E DUP3 PUSH2 0xB5F JUMP JUMPDEST PUSH1 0x20 DUP3 ADD SWAP1 POP SWAP2 SWAP1 POP JUMP JUMPDEST PUSH0 PUSH1 0x20 DUP3 ADD SWAP1 POP DUP2 DUP2 SUB PUSH0 DUP4 ADD MSTORE PUSH2 0xBC0 DUP2 PUSH2 0xB87 JUMP JUMPDEST SWAP1 POP SWAP2 SWAP1 POP JUMP JUMPDEST PUSH0 PUSH1 0x20 DUP3 ADD SWAP1 POP PUSH2 0xBDA PUSH0 DUP4 ADD DUP5 PUSH2 0x991 JUMP JUMPDEST SWAP3 SWAP2 POP POP JUMP JUMPDEST PUSH32 0x6F6E6C7920726576696577657200000000000000000000000000000000000000 PUSH0 DUP3 ADD MSTORE POP JUMP JUMPDEST PUSH0 PUSH2 0xC14 PUSH1 0xD DUP4 PUSH2 0xA7F JUMP JUMPDEST SWAP2 POP PUSH2 0xC1F DUP3 PUSH2 0xBE0 JUMP JUMPDEST PUSH1 0x20 DUP3 ADD SWAP1 POP SWAP2 SWAP1 POP JUMP JUMPDEST PUSH0 PUSH1 0x20 DUP3 ADD SWAP1 POP DUP2 DUP2 SUB PUSH0 DUP4 ADD MSTORE PUSH2 0xC41 DUP2 PUSH2 0xC08 JUMP JUMPDEST SWAP1 POP SWAP2 SWAP1 POP JUMP JUMPDEST PUSH32 0x6261642072656649640000000000000000000000000000000000000000000000 PUSH0 DUP3 ADD MSTORE POP JUMP JUMPDEST PUSH0 PUSH2 0xC7C PUSH1 0x9 DUP4 PUSH2 0xA7F JUMP JUMPDEST SWAP2 POP PUSH2 0xC87 DUP3 PUSH2 0xC48 JUMP JUMPDEST PUSH1 0x20 DUP3 ADD SWAP1 POP SWAP2 SWAP1 POP JUMP JUMPDEST PUSH0 PUSH1 0x20 DUP3 ADD SWAP1 POP DUP2 DUP2 SUB PUSH0 DUP4 ADD MSTORE PUSH2 0xCA9 DUP2 PUSH2 0xC70 JUMP JUMPDEST SWAP1 POP SWAP2 SWAP1 POP JUMP JUMPDEST PUSH32 0x616C726561647920657869737473000000000000000000000000000000000000 PUSH0 DUP3 ADD MSTORE POP JUMP JUMPDEST PUSH0 PUSH2 0xCE4 PUSH1 0xE DUP4 PUSH2 0xA7F JUMP JUMPDEST SWAP2 POP PUSH2 0xCEF DUP3 PUSH2 0xCB0 JUMP JUMPDEST PUSH1 0x20 DUP3 ADD SWAP1 POP SWAP2 SWAP1 POP JUMP JUMPDEST PUSH0 PUSH1 0x20 DUP3 ADD SWAP1 POP DUP2 DUP2 SUB PUSH0 DUP4 ADD MSTORE PUSH2 0xD11 DUP2 PUSH2 0xCD8 JUMP JUMPDEST SWAP1 POP SWAP2 SWAP1 POP JUMP JUMPDEST PUSH32 0x62616420656D706C6F7965650000000000000000000000000000000000000000 PUSH0 DUP3 ADD MSTORE POP JUMP JUMPDEST PUSH0 PUSH2 0xD4C PUSH1 0xC DUP4 PUSH2 0xA7F JUMP JUMPDEST SWAP2 POP PUSH2 0xD57 DUP3 PUSH2 0xD18 JUMP JUMPDEST PUSH1 0x20 DUP3 ADD SWAP1 POP SWAP2 SWAP1 POP JUMP JUMPDEST PUSH0 PUSH1 0x20 DUP3 ADD SWAP1 POP DUP2 DUP2 SUB PUSH0 DUP4 ADD MSTORE PUSH2 0xD79 DUP2 PUSH2 0xD40 JUMP JUMPDEST SWAP1 POP SWAP2 SWAP1 POP JUMP JUMPDEST PUSH0 PUSH1 0x20 DUP3 ADD SWAP1 POP PUSH2 0xD93 PUSH0 DUP4 ADD DUP5 PUSH2 0x8FC JUMP JUMPDEST SWAP3 SWAP2 POP POP JUMP INVALID LOG2 PUSH5 0x6970667358 0x22 SLT KECCAK256 0xC9 0xAB GASPRICE SELFDESTRUCT 0xD6 0xB7 JUMPDEST DUP6 0xE0 CODESIZE PUSH31 0x6EDD9344826DDFFB3AA1ED1EB6DF1EC4B3CE91C1F064736F6C634300081400 CALLER "},"methodIdentifiers":{"createReference(bytes32,address,address,bytes32)":"fa8b018b","references(bytes32)":"4bd8588b","revoke(bytes32)":"b75c7dc6","suppress(bytes32)":"8bb2de69"}}}}}